{
  "_format": "hh-sol-artifact-1",
  "contractName": "InvoiceNFTManager",
  "sourceName": "contracts/InvoiceNFTManager.sol",
  "abi": [
    {
      "inputs": [
        {
          "internalType": "address",
          "name": "_usdcToken",
          "type": "address"
        }
      ],
      "stateMutability": "nonpayable",
      "type": "constructor"
    },
    {
      "inputs": [],
      "name": "ECDSAInvalidSignature",
      "type": "error"
    },
    {
      "inputs": [
        {
          "internalType": "uint256",
          "name": "length",
          "type": "uint256"
        }
      ],
      "name": "ECDSAInvalidSignatureLength",
      "type": "error"
    },
    {
      "inputs": [
        {
          "internalType": "bytes32",
          "name": "s",
          "type": "bytes32"
        }
      ],
      "name": "ECDSAInvalidSignatureS",
      "type": "error"
    },
    {
      "inputs": [
        {
          "internalType": "address",
          "name": "sender",
          "type": "address"
        },
        {
          "internalType": "uint256",
          "name": "tokenId",
          "type": "uint256"
        },
        {
          "internalType": "address",
          "name": "owner",
          "type": "address"
        }
      ],
      "name": "ERC721IncorrectOwner",
      "type": "error"
    },
    {
      "inputs": [
        {
          "internalType": "address",
          "name": "operator",
          "type": "address"
        },
        {
          "internalType": "uint256",
          "name": "tokenId",
          "type": "uint256"
        }
      ],
      "name": "ERC721InsufficientApproval",
      "type": "error"
    },
    {
      "inputs": [
        {
          "internalType": "address",
          "name": "approver",
          "type": "address"
        }
      ],
      "name": "ERC721InvalidApprover",
      "type": "error"
    },
    {
      "inputs": [
        {
          "internalType": "address",
          "name": "operator",
          "type": "address"
        }
      ],
      "name": "ERC721InvalidOperator",
      "type": "error"
    },
    {
      "inputs": [
        {
          "internalType": "address",
          "name": "owner",
          "type": "address"
        }
      ],
      "name": "ERC721InvalidOwner",
      "type": "error"
    },
    {
      "inputs": [
        {
          "internalType": "address",
          "name": "receiver",
          "type": "address"
        }
      ],
      "name": "ERC721InvalidReceiver",
      "type": "error"
    },
    {
      "inputs": [
        {
          "internalType": "address",
          "name": "sender",
          "type": "address"
        }
      ],
      "name": "ERC721InvalidSender",
      "type": "error"
    },
    {
      "inputs": [
        {
          "internalType": "uint256",
          "name": "tokenId",
          "type": "uint256"
        }
      ],
      "name": "ERC721NonexistentToken",
      "type": "error"
    },
    {
      "inputs": [],
      "name": "InsufficientRepayment",
      "type": "error"
    },
    {
      "inputs": [],
      "name": "InvalidShortString",
      "type": "error"
    },
    {
      "inputs": [],
      "name": "InvalidSignature",
      "type": "error"
    },
    {
      "inputs": [],
      "name": "InvalidStatus",
      "type": "error"
    },
    {
      "inputs": [],
      "name": "NotFunded",
      "type": "error"
    },
    {
      "inputs": [],
      "name": "NotNFTOwner",
      "type": "error"
    },
    {
      "inputs": [],
      "name": "NotRepaid",
      "type": "error"
    },
    {
      "inputs": [],
      "name": "NotVerified",
      "type": "error"
    },
    {
      "inputs": [
        {
          "internalType": "address",
          "name": "owner",
          "type": "address"
        }
      ],
      "name": "OwnableInvalidOwner",
      "type": "error"
    },
    {
      "inputs": [
        {
          "internalType": "address",
          "name": "account",
          "type": "address"
        }
      ],
      "name": "OwnableUnauthorizedAccount",
      "type": "error"
    },
    {
      "inputs": [
        {
          "internalType": "string",
          "name": "str",
          "type": "string"
        }
      ],
      "name": "StringTooLong",
      "type": "error"
    },
    {
      "inputs": [],
      "name": "TransferFailed",
      "type": "error"
    },
    {
      "inputs": [],
      "name": "TransferPayoutFailed",
      "type": "error"
    },
    {
      "inputs": [],
      "name": "UnauthorizedMNC",
      "type": "error"
    },
    {
      "anonymous": false,
      "inputs": [
        {
          "indexed": true,
          "internalType": "address",
          "name": "owner",
          "type": "address"
        },
        {
          "indexed": true,
          "internalType": "address",
          "name": "approved",
          "type": "address"
        },
        {
          "indexed": true,
          "internalType": "uint256",
          "name": "tokenId",
          "type": "uint256"
        }
      ],
      "name": "Approval",
      "type": "event"
    },
    {
      "anonymous": false,
      "inputs": [
        {
          "indexed": true,
          "internalType": "address",
          "name": "owner",
          "type": "address"
        },
        {
          "indexed": true,
          "internalType": "address",
          "name": "operator",
          "type": "address"
        },
        {
          "indexed": false,
          "internalType": "bool",
          "name": "approved",
          "type": "bool"
        }
      ],
      "name": "ApprovalForAll",
      "type": "event"
    },
    {
      "anonymous": false,
      "inputs": [
        {
          "indexed": false,
          "internalType": "uint256",
          "name": "_fromTokenId",
          "type": "uint256"
        },
        {
          "indexed": false,
          "internalType": "uint256",
          "name": "_toTokenId",
          "type": "uint256"
        }
      ],
      "name": "BatchMetadataUpdate",
      "type": "event"
    },
    {
      "anonymous": false,
      "inputs": [],
      "name": "EIP712DomainChanged",
      "type": "event"
    },
    {
      "anonymous": false,
      "inputs": [
        {
          "indexed": true,
          "internalType": "uint256",
          "name": "tokenId",
          "type": "uint256"
        },
        {
          "indexed": true,
          "internalType": "address",
          "name": "sme",
          "type": "address"
        },
        {
          "indexed": false,
          "internalType": "string",
          "name": "arweaveHash",
          "type": "string"
        }
      ],
      "name": "InvoiceAnchored",
      "type": "event"
    },
    {
      "anonymous": false,
      "inputs": [
        {
          "indexed": true,
          "internalType": "uint256",
          "name": "tokenId",
          "type": "uint256"
        },
        {
          "indexed": true,
          "internalType": "address",
          "name": "investor",
          "type": "address"
        }
      ],
      "name": "InvoiceFunded",
      "type": "event"
    },
    {
      "anonymous": false,
      "inputs": [
        {
          "indexed": true,
          "internalType": "uint256",
          "name": "tokenId",
          "type": "uint256"
        },
        {
          "indexed": false,
          "internalType": "uint256",
          "name": "amount",
          "type": "uint256"
        }
      ],
      "name": "InvoiceRepaid",
      "type": "event"
    },
    {
      "anonymous": false,
      "inputs": [
        {
          "indexed": true,
          "internalType": "uint256",
          "name": "tokenId",
          "type": "uint256"
        },
        {
          "indexed": true,
          "internalType": "address",
          "name": "investor",
          "type": "address"
        },
        {
          "indexed": false,
          "internalType": "uint256",
          "name": "payout",
          "type": "uint256"
        }
      ],
      "name": "InvoiceSettled",
      "type": "event"
    },
    {
      "anonymous": false,
      "inputs": [
        {
          "indexed": true,
          "internalType": "uint256",
          "name": "tokenId",
          "type": "uint256"
        },
        {
          "indexed": true,
          "internalType": "address",
          "name": "mnc",
          "type": "address"
        },
        {
          "indexed": false,
          "internalType": "uint256",
          "name": "amount",
          "type": "uint256"
        }
      ],
      "name": "InvoiceVerified",
      "type": "event"
    },
    {
      "anonymous": false,
      "inputs": [
        {
          "indexed": false,
          "internalType": "uint256",
          "name": "_tokenId",
          "type": "uint256"
        }
      ],
      "name": "MetadataUpdate",
      "type": "event"
    },
    {
      "anonymous": false,
      "inputs": [
        {
          "indexed": true,
          "internalType": "address",
          "name": "previousOwner",
          "type": "address"
        },
        {
          "indexed": true,
          "internalType": "address",
          "name": "newOwner",
          "type": "address"
        }
      ],
      "name": "OwnershipTransferred",
      "type": "event"
    },
    {
      "anonymous": false,
      "inputs": [
        {
          "indexed": true,
          "internalType": "address",
          "name": "from",
          "type": "address"
        },
        {
          "indexed": true,
          "internalType": "address",
          "name": "to",
          "type": "address"
        },
        {
          "indexed": true,
          "internalType": "uint256",
          "name": "tokenId",
          "type": "uint256"
        }
      ],
      "name": "Transfer",
      "type": "event"
    },
    {
      "inputs": [
        {
          "internalType": "address",
          "name": "_mnc",
          "type": "address"
        }
      ],
      "name": "addAuthorizedMnc",
      "outputs": [],
      "stateMutability": "nonpayable",
      "type": "function"
    },
    {
      "inputs": [
        {
          "internalType": "string",
          "name": "_arweaveHash",
          "type": "string"
        },
        {
          "internalType": "string",
          "name": "_tokenURI",
          "type": "string"
        }
      ],
      "name": "anchorInvoice",
      "outputs": [],
      "stateMutability": "nonpayable",
      "type": "function"
    },
    {
      "inputs": [
        {
          "internalType": "address",
          "name": "to",
          "type": "address"
        },
        {
          "internalType": "uint256",
          "name": "tokenId",
          "type": "uint256"
        }
      ],
      "name": "approve",
      "outputs": [],
      "stateMutability": "nonpayable",
      "type": "function"
    },
    {
      "inputs": [
        {
          "internalType": "address",
          "name": "",
          "type": "address"
        }
      ],
      "name": "authorizedMNCs",
      "outputs": [
        {
          "internalType": "bool",
          "name": "",
          "type": "bool"
        }
      ],
      "stateMutability": "view",
      "type": "function"
    },
    {
      "inputs": [
        {
          "internalType": "address",
          "name": "owner",
          "type": "address"
        }
      ],
      "name": "balanceOf",
      "outputs": [
        {
          "internalType": "uint256",
          "name": "",
          "type": "uint256"
        }
      ],
      "stateMutability": "view",
      "type": "function"
    },
    {
      "inputs": [
        {
          "internalType": "uint256",
          "name": "_launchTime",
          "type": "uint256"
        }
      ],
      "name": "calculateN",
      "outputs": [
        {
          "internalType": "uint256",
          "name": "",
          "type": "uint256"
        }
      ],
      "stateMutability": "view",
      "type": "function"
    },
    {
      "inputs": [
        {
          "internalType": "uint256",
          "name": "_tokenId",
          "type": "uint256"
        }
      ],
      "name": "claim",
      "outputs": [],
      "stateMutability": "nonpayable",
      "type": "function"
    },
    {
      "inputs": [],
      "name": "eip712Domain",
      "outputs": [
        {
          "internalType": "bytes1",
          "name": "fields",
          "type": "bytes1"
        },
        {
          "internalType": "string",
          "name": "name",
          "type": "string"
        },
        {
          "internalType": "string",
          "name": "version",
          "type": "string"
        },
        {
          "internalType": "uint256",
          "name": "chainId",
          "type": "uint256"
        },
        {
          "internalType": "address",
          "name": "verifyingContract",
          "type": "address"
        },
        {
          "internalType": "bytes32",
          "name": "salt",
          "type": "bytes32"
        },
        {
          "internalType": "uint256[]",
          "name": "extensions",
          "type": "uint256[]"
        }
      ],
      "stateMutability": "view",
      "type": "function"
    },
    {
      "inputs": [
        {
          "internalType": "uint256",
          "name": "tokenId",
          "type": "uint256"
        }
      ],
      "name": "getApproved",
      "outputs": [
        {
          "internalType": "address",
          "name": "",
          "type": "address"
        }
      ],
      "stateMutability": "view",
      "type": "function"
    },
    {
      "inputs": [
        {
          "internalType": "uint256",
          "name": "",
          "type": "uint256"
        }
      ],
      "name": "interestReserve",
      "outputs": [
        {
          "internalType": "uint256",
          "name": "",
          "type": "uint256"
        }
      ],
      "stateMutability": "view",
      "type": "function"
    },
    {
      "inputs": [
        {
          "internalType": "uint256",
          "name": "_tokenId",
          "type": "uint256"
        }
      ],
      "name": "invest",
      "outputs": [],
      "stateMutability": "nonpayable",
      "type": "function"
    },
    {
      "inputs": [
        {
          "internalType": "uint256",
          "name": "",
          "type": "uint256"
        }
      ],
      "name": "invoices",
      "outputs": [
        {
          "internalType": "address",
          "name": "sme",
          "type": "address"
        },
        {
          "internalType": "address",
          "name": "mnc",
          "type": "address"
        },
        {
          "internalType": "uint256",
          "name": "principal",
          "type": "uint256"
        },
        {
          "internalType": "uint256",
          "name": "repaymentAmount",
          "type": "uint256"
        },
        {
          "internalType": "string",
          "name": "arweaveHash",
          "type": "string"
        },
        {
          "internalType": "uint8",
          "name": "status",
          "type": "uint8"
        },
        {
          "internalType": "uint256",
          "name": "launchTime",
          "type": "uint256"
        }
      ],
      "stateMutability": "view",
      "type": "function"
    },
    {
      "inputs": [
        {
          "internalType": "address",
          "name": "owner",
          "type": "address"
        },
        {
          "internalType": "address",
          "name": "operator",
          "type": "address"
        }
      ],
      "name": "isApprovedForAll",
      "outputs": [
        {
          "internalType": "bool",
          "name": "",
          "type": "bool"
        }
      ],
      "stateMutability": "view",
      "type": "function"
    },
    {
      "inputs": [],
      "name": "name",
      "outputs": [
        {
          "internalType": "string",
          "name": "",
          "type": "string"
        }
      ],
      "stateMutability": "view",
      "type": "function"
    },
    {
      "inputs": [],
      "name": "nextTokenId",
      "outputs": [
        {
          "internalType": "uint256",
          "name": "",
          "type": "uint256"
        }
      ],
      "stateMutability": "view",
      "type": "function"
    },
    {
      "inputs": [],
      "name": "owner",
      "outputs": [
        {
          "internalType": "address",
          "name": "",
          "type": "address"
        }
      ],
      "stateMutability": "view",
      "type": "function"
    },
    {
      "inputs": [
        {
          "internalType": "uint256",
          "name": "tokenId",
          "type": "uint256"
        }
      ],
      "name": "ownerOf",
      "outputs": [
        {
          "internalType": "address",
          "name": "",
          "type": "address"
        }
      ],
      "stateMutability": "view",
      "type": "function"
    },
    {
      "inputs": [],
      "name": "renounceOwnership",
      "outputs": [],
      "stateMutability": "nonpayable",
      "type": "function"
    },
    {
      "inputs": [
        {
          "internalType": "uint256",
          "name": "_tokenId",
          "type": "uint256"
        },
        {
          "internalType": "uint256",
          "name": "_repaymentAmount",
          "type": "uint256"
        }
      ],
      "name": "repay",
      "outputs": [],
      "stateMutability": "nonpayable",
      "type": "function"
    },
    {
      "inputs": [
        {
          "internalType": "address",
          "name": "from",
          "type": "address"
        },
        {
          "internalType": "address",
          "name": "to",
          "type": "address"
        },
        {
          "internalType": "uint256",
          "name": "tokenId",
          "type": "uint256"
        }
      ],
      "name": "safeTransferFrom",
      "outputs": [],
      "stateMutability": "nonpayable",
      "type": "function"
    },
    {
      "inputs": [
        {
          "internalType": "address",
          "name": "from",
          "type": "address"
        },
        {
          "internalType": "address",
          "name": "to",
          "type": "address"
        },
        {
          "internalType": "uint256",
          "name": "tokenId",
          "type": "uint256"
        },
        {
          "internalType": "bytes",
          "name": "data",
          "type": "bytes"
        }
      ],
      "name": "safeTransferFrom",
      "outputs": [],
      "stateMutability": "nonpayable",
      "type": "function"
    },
    {
      "inputs": [
        {
          "internalType": "address",
          "name": "operator",
          "type": "address"
        },
        {
          "internalType": "bool",
          "name": "approved",
          "type": "bool"
        }
      ],
      "name": "setApprovalForAll",
      "outputs": [],
      "stateMutability": "nonpayable",
      "type": "function"
    },
    {
      "inputs": [
        {
          "internalType": "bytes4",
          "name": "interfaceId",
          "type": "bytes4"
        }
      ],
      "name": "supportsInterface",
      "outputs": [
        {
          "internalType": "bool",
          "name": "",
          "type": "bool"
        }
      ],
      "stateMutability": "view",
      "type": "function"
    },
    {
      "inputs": [],
      "name": "symbol",
      "outputs": [
        {
          "internalType": "string",
          "name": "",
          "type": "string"
        }
      ],
      "stateMutability": "view",
      "type": "function"
    },
    {
      "inputs": [
        {
          "internalType": "uint256",
          "name": "tokenId",
          "type": "uint256"
        }
      ],
      "name": "tokenURI",
      "outputs": [
        {
          "internalType": "string",
          "name": "",
          "type": "string"
        }
      ],
      "stateMutability": "view",
      "type": "function"
    },
    {
      "inputs": [
        {
          "internalType": "address",
          "name": "from",
          "type": "address"
        },
        {
          "internalType": "address",
          "name": "to",
          "type": "address"
        },
        {
          "internalType": "uint256",
          "name": "tokenId",
          "type": "uint256"
        }
      ],
      "name": "transferFrom",
      "outputs": [],
      "stateMutability": "nonpayable",
      "type": "function"
    },
    {
      "inputs": [
        {
          "internalType": "address",
          "name": "newOwner",
          "type": "address"
        }
      ],
      "name": "transferOwnership",
      "outputs": [],
      "stateMutability": "nonpayable",
      "type": "function"
    },
    {
      "inputs": [],
      "name": "usdcToken",
      "outputs": [
        {
          "internalType": "contract IERC20",
          "name": "",
          "type": "address"
        }
      ],
      "stateMutability": "view",
      "type": "function"
    },
    {
      "inputs": [
        {
          "internalType": "uint256",
          "name": "_tokenId",
          "type": "uint256"
        },
        {
          "internalType": "uint256",
          "name": "_amount",
          "type": "uint256"
        },
        {
          "internalType": "bytes",
          "name": "_signature",
          "type": "bytes"
        }
      ],
      "name": "verifyInvoice",
      "outputs": [],
      "stateMutability": "nonpayable",
      "type": "function"
    }
  ],
  "bytecode": "0x6101806040523480156200001257600080fd5b5060405162002c7138038062002c718339810160408190526200003591620002ae565b336040518060400160405280600e81526020016d24b73b37b4b1b2a6b0b730b3b2b960911b815250604051806040016040528060018152602001603160f81b8152506040518060400160405280600a815260200169125b9d9bda58d953919560b21b815250604051806040016040528060048152602001631253919560e21b8152508160009081620000c8919062000385565b506001620000d7828262000385565b50620000e991508390506007620001e0565b61012052620000fa816008620001e0565b61014052815160208084019190912060e052815190820120610100524660a0526200018860e05161010051604080517f8b73c3c69bb8fe3d512ecc4cf759cc79239f7b179b0ffacaa9a75d522b39400f60208201529081019290925260608201524660808201523060a082015260009060c00160405160208183030381529060405280519060200120905090565b60805250503060c0526001600160a01b038116620001c157604051631e4fbdf760e01b8152600060048201526024015b60405180910390fd5b620001cc8162000219565b506001600160a01b031661016052620004c6565b60006020835110156200020057620001f8836200026b565b905062000213565b816200020d848262000385565b5060ff90505b92915050565b600980546001600160a01b038381166001600160a01b0319831681179093556040519116919082907f8be0079c531659141344cd1fd0a4f28419497f9722a3daafe3b4186f6b6457e090600090a35050565b600080829050601f8151111562000299578260405163305a27a960e01b8152600401620001b8919062000451565b8051620002a682620004a1565b179392505050565b600060208284031215620002c157600080fd5b81516001600160a01b0381168114620002d957600080fd5b9392505050565b634e487b7160e01b600052604160045260246000fd5b600181811c908216806200030b57607f821691505b6020821081036200032c57634e487b7160e01b600052602260045260246000fd5b50919050565b601f8211156200038057600081815260208120601f850160051c810160208610156200035b5750805b601f850160051c820191505b818110156200037c5782815560010162000367565b5050505b505050565b81516001600160401b03811115620003a157620003a1620002e0565b620003b981620003b28454620002f6565b8462000332565b602080601f831160018114620003f15760008415620003d85750858301515b600019600386901b1c1916600185901b1785556200037c565b600085815260208120601f198616915b82811015620004225788860151825594840194600190910190840162000401565b5085821015620004415787850151600019600388901b60f8161c191681555b5050505050600190811b01905550565b600060208083528351808285015260005b81811015620004805785810183015185820160400152820162000462565b506000604082860101526040601f19601f8301168501019250505092915050565b805160208083015191908110156200032c5760001960209190910360031b1b16919050565b60805160a05160c05160e05161010051610120516101405161016051612729620005486000396000818161027701528181610670015281816107660152818161098301526110590152600061150e015260006114dc01526000611a6401526000611a3c01526000611997015260006119c1015260006119eb01526127296000f3fe608060405234801561001057600080fd5b50600436106101cf5760003560e01c80636352211e11610104578063964ca56e116100a2578063c87b56dd11610071578063c87b56dd14610418578063d8aed1451461042b578063e985e9c51461043e578063f2fde38b1461045157600080fd5b8063964ca56e146103bc578063a22cb465146103df578063a53d6b65146103f2578063b88d4fde1461040557600080fd5b806375794a3c116100de57806375794a3c1461037f57806384b0196e146103885780638da5cb5b146103a357806395d89b41146103b457600080fd5b80636352211e1461035157806370a0823114610364578063715018a61461037757600080fd5b80632afcf4801161017157806342842e0e1161014b57806342842e0e146102e557806349052b2a146102f85780634e6d14051461030b57806356a378151461033157600080fd5b80632afcf480146102ac578063302ced00146102bf578063379607f5146102d257600080fd5b8063095ea7b3116101ad578063095ea7b31461023c5780630bc0b1e41461025157806311eac8551461027257806323b872dd1461029957600080fd5b806301ffc9a7146101d457806306fdde03146101fc578063081812fc14610211575b600080fd5b6101e76101e2366004611f80565b610464565b60405190151581526020015b60405180910390f35b61020461048f565b6040516101f39190611fed565b61022461021f366004612000565b610521565b6040516001600160a01b0390911681526020016101f3565b61024f61024a366004612030565b61054a565b005b61026461025f366004612000565b610559565b6040519081526020016101f3565b6102247f000000000000000000000000000000000000000000000000000000000000000081565b61024f6102a736600461205a565b610583565b61024f6102ba366004612000565b610613565b61024f6102cd366004612096565b610849565b61024f6102e0366004612000565b610875565b61024f6102f336600461205a565b610a6b565b61024f610306366004612154565b610a8b565b61031e610319366004612000565b610c13565b6040516101f397969594939291906121a4565b61026461033f366004612000565b600c6020526000908152604090205481565b61022461035f366004612000565b610ce9565b610264610372366004612096565b610cf4565b61024f610d3c565b610264600d5481565b610390610d50565b6040516101f397969594939291906121f7565b6009546001600160a01b0316610224565b610204610d96565b6101e76103ca366004612096565b600b6020526000908152604090205460ff1681565b61024f6103ed36600461229b565b610da5565b61024f6104003660046122d2565b610db0565b61024f610413366004612336565b610ed8565b610204610426366004612000565b610ef0565b61024f61043936600461239e565b611001565b6101e761044c3660046123c0565b611154565b61024f61045f366004612096565b611182565b60006001600160e01b03198216632483248360e11b14806104895750610489826111c0565b92915050565b60606000805461049e906123f3565b80601f01602080910402602001604051908101604052809291908181526020018280546104ca906123f3565b80156105175780601f106104ec57610100808354040283529160200191610517565b820191906000526020600020905b8154815290600101906020018083116104fa57829003601f168201915b5050505050905090565b600061052c82611210565b506000828152600460205260409020546001600160a01b0316610489565b610555828233611249565b5050565b60006105688262015180612443565b42116105765750600a919050565b506005919050565b919050565b6001600160a01b0382166105b257604051633250574960e11b8152600060048201526024015b60405180910390fd5b60006105bf838333611256565b9050836001600160a01b0316816001600160a01b03161461060d576040516364283d7b60e01b81526001600160a01b03808616600483015260248201849052821660448201526064016105a9565b50505050565b6000818152600a60205260409020600581015460ff166001146106495760405163a95362b560e01b815260040160405180910390fd5b60028101546040516323b872dd60e01b8152336004820152306024820152604481018290527f00000000000000000000000000000000000000000000000000000000000000006001600160a01b0316906323b872dd906064016020604051808303816000875af11580156106c1573d6000803e3d6000fd5b505050506040513d601f19601f820116820180604052508101906106e59190612456565b610702576040516312171d8360e31b815260040160405180910390fd5b60006064610711836001612473565b61071b919061248a565b9050600061072982846124ac565b6000868152600c6020526040908190208490558554905163a9059cbb60e01b81526001600160a01b039182166004820152602481018390529192507f0000000000000000000000000000000000000000000000000000000000000000169063a9059cbb906044016020604051808303816000875af11580156107af573d6000803e3d6000fd5b505050506040513d601f19601f820116820180604052508101906107d39190612456565b6107f0576040516312171d8360e31b815260040160405180910390fd5b8354610806906001600160a01b0316338761134f565b60058401805460ff19166002179055604051339086907fadc3a78b455badb962ea60f364c2a8813b0ebeabbea8cb407b49f06e64d58db690600090a35050505050565b6108516113ff565b6001600160a01b03166000908152600b60205260409020805460ff19166001179055565b6000818152600a60205260409020600581015460ff166003146108ab5760405163bdce25bb60e01b815260040160405180910390fd5b336108b583610ce9565b6001600160a01b0316146108dc57604051631022318760e21b815260040160405180910390fd5b60006108eb8260060154610559565b905060006005905060006064828486600201546109089190612473565b6109129190612473565b61091c919061248a565b905060008185600201546109309190612443565b9050808560030154101561095757604051630443f54160e21b815260040160405180910390fd5b6000868152600c60205260409081902054905163a9059cbb60e01b8152336004820152602481018390527f00000000000000000000000000000000000000000000000000000000000000006001600160a01b03169063a9059cbb906044016020604051808303816000875af11580156109d4573d6000803e3d6000fd5b505050506040513d601f19601f820116820180604052508101906109f89190612456565b610a1557604051636f8bd53360e11b815260040160405180910390fd5b60058601805460ff19166004179055604051339088907ffaae2f95f5d6dbc3472432833f1c636ce82772334060ab8a884aa17e82ff717990610a5a9086815260200190565b60405180910390a350505050505050565b610a8683838360405180602001604052806000815250610ed8565b505050565b6000838152600a60205260409020600581015460ff1615610abf576040516307a92f1960e51b815260040160405180910390fd5b60007fcd2aea37897a25a6d17af10e746e5b4294e0d3f67a1bed2c5504071ab6232e9a82600401604051610af391906124bf565b604080519182900382206020830193909352810191909152606081018590526080016040516020818303038152906040528051906020012090506000610b388261142c565b90506000610b468286611459565b6001600160a01b0381166000908152600b602052604090205490915060ff16610b82576040516347a0dea560e01b815260040160405180910390fd5b6001600160a01b038116610ba957604051638baa579f60e01b815260040160405180910390fd5b600184810180546001600160a01b0319166001600160a01b0384169081179091556002860188905560058601805460ff191690921790915560405187815288907ff6f9a7991389c70c319499c000dd821b0e4cc5d58586c6bbbf03d05a601fda8890602001610a5a565b600a60205260009081526040902080546001820154600283015460038401546004850180546001600160a01b0395861696949095169492939192610c56906123f3565b80601f0160208091040260200160405190810160405280929190818152602001828054610c82906123f3565b8015610ccf5780601f10610ca457610100808354040283529160200191610ccf565b820191906000526020600020905b815481529060010190602001808311610cb257829003601f168201915b505050506005830154600690930154919260ff1691905087565b600061048982611210565b60006001600160a01b038216610d20576040516322718ad960e21b8152600060048201526024016105a9565b506001600160a01b031660009081526003602052604090205490565b610d446113ff565b610d4e6000611483565b565b600060608060008060006060610d646114d5565b610d6c611507565b60408051600080825260208201909252600f60f81b9b939a50919850469750309650945092509050565b60606001805461049e906123f3565b610555338383611534565b600d805460009182610dc183612535565b919050559050610dd133826115cb565b610ddb8183611630565b6040805160e0810182523381526000602080830182815283850183815260608501848152608086018a815260a087018690524260c0880152888652600a90945295909320845181546001600160a01b03199081166001600160a01b039283161783559251600183018054909416911617909155915160028301559251600382015591519091906004820190610e709082612594565b5060a082015160058201805460ff191660ff90921691909117905560c090910151600690910155604051339082907f8065bb2379cf192e70a7174b8d0a02f123b9af6b3eaed1fed50e3730033a521090610ecb908790611fed565b60405180910390a3505050565b610ee3848484610583565b61060d3385858585611680565b6060610efb82611210565b5060008281526006602052604081208054610f15906123f3565b80601f0160208091040260200160405190810160405280929190818152602001828054610f41906123f3565b8015610f8e5780601f10610f6357610100808354040283529160200191610f8e565b820191906000526020600020905b815481529060010190602001808311610f7157829003601f168201915b505050505090506000610fac60408051602081019091526000815290565b90508051600003610fbe575092915050565b815115610ff0578082604051602001610fd8929190612654565b60405160208183030381529060405292505050919050565b610ff9846117ab565b949350505050565b6000828152600a60205260409020600581015460ff1660021461103757604051636af784dd60e11b815260040160405180910390fd5b6040516323b872dd60e01b8152336004820152306024820152604481018390527f00000000000000000000000000000000000000000000000000000000000000006001600160a01b0316906323b872dd906064016020604051808303816000875af11580156110aa573d6000803e3d6000fd5b505050506040513d601f19601f820116820180604052508101906110ce9190612456565b6110eb576040516312171d8360e31b815260040160405180910390fd5b818160030160008282546110ff9190612443565b909155505060058101805460ff1916600317905560405183907fe57c83410ab16d767654351928d1ea4b894f6c93e04e4e6408bd7d301dcd82db906111479085815260200190565b60405180910390a2505050565b6001600160a01b03918216600090815260056020908152604080832093909416825291909152205460ff1690565b61118a6113ff565b6001600160a01b0381166111b457604051631e4fbdf760e01b8152600060048201526024016105a9565b6111bd81611483565b50565b60006001600160e01b031982166380ac58cd60e01b14806111f157506001600160e01b03198216635b5e139f60e01b145b8061048957506301ffc9a760e01b6001600160e01b0319831614610489565b6000818152600260205260408120546001600160a01b03168061048957604051637e27328960e01b8152600481018490526024016105a9565b610a868383836001611820565b6000828152600260205260408120546001600160a01b039081169083161561128357611283818486611926565b6001600160a01b038116156112c1576112a0600085600080611820565b6001600160a01b038116600090815260036020526040902080546000190190555b6001600160a01b038516156112f0576001600160a01b0385166000908152600360205260409020805460010190555b60008481526002602052604080822080546001600160a01b0319166001600160a01b0389811691821790925591518793918516917fddf252ad1be2c89b69c2b068fc378daa952ba7f163c4a11628f55a4df523b3ef91a4949350505050565b6001600160a01b03821661137957604051633250574960e11b8152600060048201526024016105a9565b600061138783836000611256565b90506001600160a01b0381166113b357604051637e27328960e01b8152600481018390526024016105a9565b836001600160a01b0316816001600160a01b03161461060d576040516364283d7b60e01b81526001600160a01b03808616600483015260248201849052821660448201526064016105a9565b6009546001600160a01b03163314610d4e5760405163118cdaa760e01b81523360048201526024016105a9565b600061048961143961198a565b8360405161190160f01b8152600281019290925260228201526042902090565b6000806000806114698686611ab5565b9250925092506114798282611b02565b5090949350505050565b600980546001600160a01b038381166001600160a01b0319831681179093556040519116919082907f8be0079c531659141344cd1fd0a4f28419497f9722a3daafe3b4186f6b6457e090600090a35050565b60606115027f00000000000000000000000000000000000000000000000000000000000000006007611bbb565b905090565b60606115027f00000000000000000000000000000000000000000000000000000000000000006008611bbb565b6001600160a01b03821661156657604051630b61174360e31b81526001600160a01b03831660048201526024016105a9565b6001600160a01b03838116600081815260056020908152604080832094871680845294825291829020805460ff191686151590811790915591519182527f17307eab39ab6107e8899845ad3d59bd9653f200f220920489ca2b5937696c319101610ecb565b6001600160a01b0382166115f557604051633250574960e11b8152600060048201526024016105a9565b600061160383836000611256565b90506001600160a01b03811615610a86576040516339e3563760e11b8152600060048201526024016105a9565b60008281526006602052604090206116488282612594565b506040518281527ff8e1a15aba9398e019f0b49df1a4fde98ee17ae345cb5f6b5e2c27f5033e8ce79060200160405180910390a15050565b6001600160a01b0383163b156117a457604051630a85bd0160e11b81526001600160a01b0384169063150b7a02906116c2908890889087908790600401612683565b6020604051808303816000875af19250505080156116fd575060408051601f3d908101601f191682019092526116fa918101906126c0565b60015b611766573d80801561172b576040519150601f19603f3d011682016040523d82523d6000602084013e611730565b606091505b50805160000361175e57604051633250574960e11b81526001600160a01b03851660048201526024016105a9565b805160208201fd5b6001600160e01b03198116630a85bd0160e11b146117a257604051633250574960e11b81526001600160a01b03851660048201526024016105a9565b505b5050505050565b60606117b682611210565b5060006117ce60408051602081019091526000815290565b905060008151116117ee5760405180602001604052806000815250611819565b806117f884611c66565b604051602001611809929190612654565b6040516020818303038152906040525b9392505050565b808061183457506001600160a01b03821615155b156118f657600061184484611210565b90506001600160a01b038316158015906118705750826001600160a01b0316816001600160a01b031614155b801561188357506118818184611154565b155b156118ac5760405163a9fbf51f60e01b81526001600160a01b03841660048201526024016105a9565b81156118f45783856001600160a01b0316826001600160a01b03167f8c5be1e5ebec7d5bd14f71427d1e84f3dd0314c0f7b2291e5b200ac8c7c3b92560405160405180910390a45b505b5050600090815260046020526040902080546001600160a01b0319166001600160a01b0392909216919091179055565b611931838383611cf9565b610a86576001600160a01b03831661195f57604051637e27328960e01b8152600481018290526024016105a9565b60405163177e802f60e01b81526001600160a01b0383166004820152602481018290526044016105a9565b6000306001600160a01b037f0000000000000000000000000000000000000000000000000000000000000000161480156119e357507f000000000000000000000000000000000000000000000000000000000000000046145b15611a0d57507f000000000000000000000000000000000000000000000000000000000000000090565b611502604080517f8b73c3c69bb8fe3d512ecc4cf759cc79239f7b179b0ffacaa9a75d522b39400f60208201527f0000000000000000000000000000000000000000000000000000000000000000918101919091527f000000000000000000000000000000000000000000000000000000000000000060608201524660808201523060a082015260009060c00160405160208183030381529060405280519060200120905090565b60008060008351604103611aef5760208401516040850151606086015160001a611ae188828585611d5c565b955095509550505050611afb565b50508151600091506002905b9250925092565b6000826003811115611b1657611b166126dd565b03611b1f575050565b6001826003811115611b3357611b336126dd565b03611b515760405163f645eedf60e01b815260040160405180910390fd5b6002826003811115611b6557611b656126dd565b03611b865760405163fce698f760e01b8152600481018290526024016105a9565b6003826003811115611b9a57611b9a6126dd565b03610555576040516335e2f38360e21b8152600481018290526024016105a9565b606060ff8314611bd557611bce83611e2b565b9050610489565b818054611be1906123f3565b80601f0160208091040260200160405190810160405280929190818152602001828054611c0d906123f3565b8015611c5a5780601f10611c2f57610100808354040283529160200191611c5a565b820191906000526020600020905b815481529060010190602001808311611c3d57829003601f168201915b50505050509050610489565b60606000611c7383611e6a565b600101905060008167ffffffffffffffff811115611c9357611c936120b1565b6040519080825280601f01601f191660200182016040528015611cbd576020820181803683370190505b5090508181016020015b600019016f181899199a1a9b1b9c1cb0b131b232b360811b600a86061a8153600a8504945084611cc757509392505050565b60006001600160a01b03831615801590610ff95750826001600160a01b0316846001600160a01b03161480611d335750611d338484611154565b80610ff95750506000908152600460205260409020546001600160a01b03908116911614919050565b600080807f7fffffffffffffffffffffffffffffff5d576e7357a4501ddfe92f46681b20a0841115611d975750600091506003905082611e21565b604080516000808252602082018084528a905260ff891692820192909252606081018790526080810186905260019060a0016020604051602081039080840390855afa158015611deb573d6000803e3d6000fd5b5050604051601f1901519150506001600160a01b038116611e1757506000925060019150829050611e21565b9250600091508190505b9450945094915050565b60606000611e3883611f42565b604080516020808252818301909252919250600091906020820181803683375050509182525060208101929092525090565b60008072184f03e93ff9f4daa797ed6e38ed64bf6a1f0160401b8310611ea95772184f03e93ff9f4daa797ed6e38ed64bf6a1f0160401b830492506040015b6d04ee2d6d415b85acef81000000008310611ed5576d04ee2d6d415b85acef8100000000830492506020015b662386f26fc100008310611ef357662386f26fc10000830492506010015b6305f5e1008310611f0b576305f5e100830492506008015b6127108310611f1f57612710830492506004015b60648310611f31576064830492506002015b600a83106104895760010192915050565b600060ff8216601f81111561048957604051632cd44ac360e21b815260040160405180910390fd5b6001600160e01b0319811681146111bd57600080fd5b600060208284031215611f9257600080fd5b813561181981611f6a565b60005b83811015611fb8578181015183820152602001611fa0565b50506000910152565b60008151808452611fd9816020860160208601611f9d565b601f01601f19169290920160200192915050565b6020815260006118196020830184611fc1565b60006020828403121561201257600080fd5b5035919050565b80356001600160a01b038116811461057e57600080fd5b6000806040838503121561204357600080fd5b61204c83612019565b946020939093013593505050565b60008060006060848603121561206f57600080fd5b61207884612019565b925061208660208501612019565b9150604084013590509250925092565b6000602082840312156120a857600080fd5b61181982612019565b634e487b7160e01b600052604160045260246000fd5b600082601f8301126120d857600080fd5b813567ffffffffffffffff808211156120f3576120f36120b1565b604051601f8301601f19908116603f0116810190828211818310171561211b5761211b6120b1565b8160405283815286602085880101111561213457600080fd5b836020870160208301376000602085830101528094505050505092915050565b60008060006060848603121561216957600080fd5b8335925060208401359150604084013567ffffffffffffffff81111561218e57600080fd5b61219a868287016120c7565b9150509250925092565b6001600160a01b03888116825287166020820152604081018690526060810185905260e0608082018190526000906121de90830186611fc1565b60ff9490941660a08301525060c0015295945050505050565b60ff60f81b881681526000602060e08184015261221760e084018a611fc1565b8381036040850152612229818a611fc1565b606085018990526001600160a01b038816608086015260a0850187905284810360c0860152855180825283870192509083019060005b8181101561227b5783518352928401929184019160010161225f565b50909c9b505050505050505050505050565b80151581146111bd57600080fd5b600080604083850312156122ae57600080fd5b6122b783612019565b915060208301356122c78161228d565b809150509250929050565b600080604083850312156122e557600080fd5b823567ffffffffffffffff808211156122fd57600080fd5b612309868387016120c7565b9350602085013591508082111561231f57600080fd5b5061232c858286016120c7565b9150509250929050565b6000806000806080858703121561234c57600080fd5b61235585612019565b935061236360208601612019565b925060408501359150606085013567ffffffffffffffff81111561238657600080fd5b612392878288016120c7565b91505092959194509250565b600080604083850312156123b157600080fd5b50508035926020909101359150565b600080604083850312156123d357600080fd5b6123dc83612019565b91506123ea60208401612019565b90509250929050565b600181811c9082168061240757607f821691505b60208210810361242757634e487b7160e01b600052602260045260246000fd5b50919050565b634e487b7160e01b600052601160045260246000fd5b808201808211156104895761048961242d565b60006020828403121561246857600080fd5b81516118198161228d565b80820281158282048414176104895761048961242d565b6000826124a757634e487b7160e01b600052601260045260246000fd5b500490565b818103818111156104895761048961242d565b60008083546124cd816123f3565b600182811680156124e557600181146124fa57612529565b60ff1984168752821515830287019450612529565b8760005260208060002060005b858110156125205781548a820152908401908201612507565b50505082870194505b50929695505050505050565b6000600182016125475761254761242d565b5060010190565b601f821115610a8657600081815260208120601f850160051c810160208610156125755750805b601f850160051c820191505b818110156117a257828155600101612581565b815167ffffffffffffffff8111156125ae576125ae6120b1565b6125c2816125bc84546123f3565b8461254e565b602080601f8311600181146125f757600084156125df5750858301515b600019600386901b1c1916600185901b1785556117a2565b600085815260208120601f198616915b8281101561262657888601518255948401946001909101908401612607565b50858210156126445787850151600019600388901b60f8161c191681555b5050505050600190811b01905550565b60008351612666818460208801611f9d565b83519083019061267a818360208801611f9d565b01949350505050565b6001600160a01b03858116825284166020820152604081018390526080606082018190526000906126b690830184611fc1565b9695505050505050565b6000602082840312156126d257600080fd5b815161181981611f6a565b634e487b7160e01b600052602160045260246000fdfea26469706673582212204bd0a672f96f360f4a1a04499bbdd0a0abede0706752dc64ce86207b45fdaf1a64736f6c63430008140033",
  "linkReferences": {},
  "deployedLinkReferences": {}
}